:020000040800F2
:1000000000070020650200084314000813130008CD
:10001000411400085B040008B1190008000000004A
:1000200000000000000000000000000009190008A6
:100030005D040008000000002D1700080B190008DF
:100040007F0200087F0200087F0200087F0200088C
:100050007F0200087F0200087F0200087F0200087C
:100060007F0200087F0200087F0200087F0200086C
:100070007F0200087F0200087F0200087F0200085C
:100080007F0200087F0200087F0200087F0200084C
:100090007F0200087F0200087F0200087F0200083C
:1000A0007F0200087F0200087F0200087F0200082C
:1000B0007F0200087F0200087F0200087F0200081C
:1000C0007F0200087F0200087F0200087F0200080C
:1000D0007F0200087F0200087F0200087F020008FC
:1000E0007F0200087F0200087F0200087F020008EC
:1000F0007F0200087F0200087F0200087F020008DC
:10010000000000007F0200087F0200087F02000854
:1001100000000000000000007F0200087F020008CD
:100120007F0200087F0200087F0200087F020008AB
:100130007F0200087F0200087F0200087F0200089B
:100140007F0200087F0200087F0200087F0200088B
:100150007F0200087F0200087F0200087F0200087B
:100160007F0200087F02000800000000000000007D
:10017000000000000000000000000000000000007F
:100180007F0200087F02000800000000000000005D
:100190007F0200087F02000800000000000000004D
:1001A000000000000000000000000000000000004F
:1001B0007F02000800000000000000007F0200082D
:1001C0007F02000800F002F800F03CF80AA090E876
:1001D000000C82448344AAF10107DA4501D100F002
:1001E00031F8AFF2090EBAE80F0013F0010F18BF93
:1001F000FB1A43F0010318471C1F00003C1F0000BE
:10020000103A24BF78C878C1FAD8520724BF30C842
:1002100030C144BF04680C60704700000023002414
:1002200000250026103A28BF78C1FBD8520728BF06
:1002300030C148BF0B6070471FB501F045FC1FBDC2
:1002400010B510BD00F0CFF81146FFF7F5FF01F033
:10025000F1FB00F0EDF803B4FFF7F2FF03BC00F090
:10026000F5F800000948804709480047FEE7FEE727
:10027000FEE7FEE7FEE7FEE7FEE7FEE7FEE7FEE756
:1002800004480549054A064B70470000A1190008BB
:10029000C501000800010020000700200003002025
:1002A0000003002053EA020C00F069802DE9F04BB6
:1002B0004FF00006002B1FBFB3FA83F503FA05F4D5
:1002C00024FA05F65E4012BF1643B2FA82F502FA2E
:1002D00005F4C5F120051EBF22FA05FC44EA0C0412
:1002E000203556EA044C4FEA144418BF641C4FF002
:1002F00000084FF00009904271EB030C39D300293C
:1003000019BFB1FA81F701FA07F6B0FA80F700FADF
:1003100007F6C7F120071EBF20FA07FC46EA0C06C5
:100320002037B6FBF4FCA7EB0507103F07F01F0BC7
:10033000CBF120060CFA0BFB2CFA06F644BFB346B1
:100340000026202FA4BF5E464FF0000B5BEA060C90
:1003500008BF4FF0010B19EB0B09ABFB027C48EB1C
:100360000608C01B06FB02CC0BFB03CC71EB0C0197
:10037000C1E70B46024641464846BDE8F08B13B53F
:100380004FF000004FF00001AFF30080BDE81C40CB
:1003900070474FF0000200B5134694469646203948
:1003A00022BFA0E80C50A0E80C50B1F12001BFF42E
:1003B000F7AF090728BFA0E80C5048BF0CC05DF894
:1003C00004EB890028BF40F8042B08BF704748BFE2
:1003D00020F8022B11F0804F18BF00F8012B704756
:1003E000704770477047754600F02CF8AE46050020
:1003F0006946534620F00700854618B020B5FFF740
:100400003FFFBDE820404FF000064FF000074FF0DF
:1004100000084FF0000B21F00701AC46ACE8C00922
:10042000ACE8C009ACE8C009ACE8C0098D4670472B
:1004300010B50446AFF300802046BDE81040FFF73A
:100440000ABF0000004870479C00002001491820A6
:10045000ABBEFEE7260002007047FEE770470000D3
:1004600070B586B000240594B0F1006F1AD3134B19
:1004700042189A4216D8A9B101F0F6F90546501E65
:1004800001F0F2F9461B761C00F0D8F90220029523
:100490000094CDE9036005A9684600F03BF904002B
:1004A00003D007E0012006B070BD4CF2503000F0E0
:1004B000F7F8044600F07AF92046F4E7000008084F
:1004C00072B6FEE7002229B101291AD002291BD0F9
:1004D0004FF440720E490B6823F440730B600B68B5
:1004E00013430B600A6822F0F8020A600A680223CC
:1004F00003EBC00002430A60086840F480300860E3
:1005000070474FF48072E5E74FF40072E2E70000B5
:10051000103C02401348016889050FD5016821F499
:1005200000710160016841F400610160016821F41B
:1005300000610160016841F40071016001684905D2
:100540000FD5016821F480610160016841F4805198
:100550000160016821F480510160016841F480610B
:1005600001607047003C024008490A6822F440726A
:100570000A600A6842F004020A600A684FF4803395
:1005800043EA002002430A6070470000103C02402A
:10059000064A136823F440731360136813601368EA
:1005A00043F001031360017070470000103C0240EB
:1005B000094910B50C6824F440740C600C6844F4CC
:1005C00040740C600C6844F001040C600260BFF3DE
:1005D0006F8F436010BD0000103C0240074A136853
:1005E00023F440731360136843F48073136013683B
:1005F00043F001031360018070470000103C02408B
:10060000074A136823F440731360136843F40073BC
:100610001360136843F0010313600160704700002A
:10062000103C02401C490868C2061C4805D5C26936
:1006300042F01002C26110220A600A68920605D5D3
:10064000C26942F00802C26120220A600A685206AA
:1006500005D5C26942F00402C26140220A600A68FC
:10066000120605D5C26942F00202C26180220A6008
:100670000A68D20506D5C26942F00102C2614FF490
:1006800080720A600A68920705D5C26942F02002AA
:10069000C2610220086070470C3C0240000000204C
:1006A00070B5114904460020C86100F0BDF9064646
:1006B0000E4D09E0601C07D024B100F0B5F9801B95
:1006C000A04201D9032070BD2868C003F2D4286875
:1006D000C00701D001202860286810F4F970F2D01A
:1006E000FFF7A0FF012070BD000000200C3C02407D
:1006F00070B5044600F098F90546601C02D0044825
:100700000078044400F090F9401BA042FAD370BD79
:10071000200000202DE9F047044622480F46017EC4
:1007200001290AD00121804601764CF25039484611
:10073000FFF7B6FF020003D02FE00220BDE8F087EC
:100740004FF0FF3038602068174D012801D0A668AF
:100750001CE0207C6168FFF707FF4846FFF7A0FF19
:100760000246286820F00400286014E0217C30460E
:10077000FFF7A8FE4846FFF793FF0200286820F025
:10078000FA00286001D03E6005E0761CD4E9021032
:100790000844B042EAD8FFF7BDFE002188F81810DF
:1007A0001046CBE700000020103C024003480168DF
:1007B00041F000410160002070470000103C024001
:1007C0002DE9F0471B4E05461446307E1F468946EC
:1007D000012808D0012030764CF250384046FFF70F
:1007E0005FFF18B114E00220BDE8F0879DB1012D34
:1007F00016D0022D19D022463B464846FFF7D8FEB8
:100800004046FFF74DFF0C490A6822F001020A60DA
:1008100000213176E8E7E1B24846FFF7B9FEEFE79D
:10082000A1B24846FFF7DAFEEAE721464846FFF75D
:10083000E7FEE5E700000020103C024007490020E9
:100840000A68002A09DA054A054B0C3A1360054B81
:1008500013600968002900DA01207047103C02404B
:1008600023016745AB89EFCD2DE9F84FDFF890A163
:100870000022012403254FF00F090AF1040BAAF10D
:10088000040E00BF0B6804FA02F63340B3426ED187
:100890000F7907F00307012F01D0022F16D18768C7
:1008A0004FEA420805FA08FC27EA0C07D1F80CC009
:1008B0000CFA08FC4CEA070CC0F808C04768B743BC
:1008C0000E79C6F3001696403E4346600E79F64315
:1008D000B6070AD0C6684FEA420C05FA0CF7BE43C9
:1008E0008F6807FA0CF73743C7600E7906F00306E6
:1008F000022E10D1D60800EB8608D8F820605707E2
:100900004FEAD76C09FA0CF7BE430F6907FA0CF7E8
:100910003743C8F8207006684FEA420C05FA0CF716
:10092000BE430F7907F0030707FA0CF73743076058
:100930004E6816F4403F5CD0324E376847F480472B
:100940003760366822F0030706F4804600962E4E84
:1009500007EB060CDCF8086897074FEA177809FAE6
:1009600008F7BE43294FB84202D1002710E040E00B
:10097000274FB84201D101270AE0264FB84201D1E2
:10098000022705E0244FB84201D1032700E00727E2
:1009900007FA08F73743CCF80878DAF800605746CA
:1009A000D1F804C09E435FEACC2C00D51E433E60C4
:1009B000DBF800605F46D1F804C09E435FEA8C2CF0
:1009C00000D51E433E60DEF800607746D1F804C0D3
:1009D0009E435FEA8C3C00D51E433E60084F083FB3
:1009E0003E68D1F804C09E435FEACC3C00D51E436C
:1009F0003E60521C102AFFF445AFBDE8F88F00009E
:100A0000083C0140443802400030014000000240F0
:100A10000004024000080240000C02400AB181615B
:100A200070470904FBE70000014880687047000038
:100A300020000020024881680278114481607047DC
:100A4000200000200B4810B5016841F400710160DE
:100A5000016841F480610160016841F480710160C6
:100A6000032000F061F80F2000F006F800F024F8F1
:100A7000002010BD003C024070B50D4D04464FF4FF
:100A80007A712878B1FBF0F00A490968B1FBF0F0FF
:100A900000F02BFC48B9102C07D200222146501E32
:100AA00000F022F800206C6070BD012070BD0000D5
:100AB000200000202C0000200A4808B5016841F4FD
:100AC00080410160006800F4804000900548001FEC
:100AD000016841F080510160006800F08050009092
:100AE00008BD000044380240F0B40E4B1B680C46B1
:100AF000C3F30223C3F10705042D00D90425191DF2
:100B0000072901D2002300E0DB1E012606FA05F1C9
:100B1000491E214099409E40761E16403143F0BC4C
:100B200000F078BF0CED00E0064900F0070208680D
:100B30004FF6FF03184040EA0220034A10430860C2
:100B4000704700000CED00E00000FA052DE9F047C9
:100B50000E46050065D0DFF81481D8F80000F7B222
:100B600000F00700B04207D288F80070D8F8000003
:100B700000F00700B04254D128683D4C810712D5DF
:100B8000400703D5206840F4E05020602878000733
:100B900003D5206840F4604020602068A96820F0F8
:100BA000F000084320602878C0072DD030496868DD
:100BB0000839012812D0022813D0032811D009685F
:100BC000890700292DDA216821F003010143216002
:100BD000FFF72AFF814641F2883A0EE0096889034F
:100BE000EFE709688901ECE7FFF71EFFA0EB0901B9
:100BF000514502D90320BDE8F0872068696800F0FC
:100C00000C00B0EB810FEFD1D8F80010404601F096
:100C10000701B14207D90770006800F00700B04231
:100C200001D00120E7E72878400705D52068E9686A
:100C300020F4E050084320602878000706D520689B
:100C4000296920F4604040EAC100206000F018F8F3
:100C50002168084AC1F30311515CC8400649086085
:100C600006480068FFF708FF0020C4E7003C024088
:100C700008380240022100082C0000202400002037
:100C8000154810B5006810F00C02144813D041103C
:100C9000042A0FD0082A0ED10F4C241F2268236883
:100CA00002F03F025B0207D52068C0F38810A0FB6A
:100CB000010106E0084610BD2168C1F38811A1FBBF
:100CC00000010023FFF7EEFA2168C1F30141491C3E
:100CD0004900B0FBF1F010BD083802400024F400D8
:100CE0002DE9F84F04006ED02078DFF86093C0073C
:100CF000A9F104054AD009F104000168C1F381019A
:100D0000012908D00068C0F3810002280AD1D9F86F
:100D10000000400206D52868800337D560680028A7
:100D2000E1D033E06068B0F5803F10D0B0F5A02F7F
:100D3000286810D020F480302860286820F48020B3
:100D400028606068A8B1FFF76FFE06460DE02868CE
:100D500040F48030F4E740F480202860F7E700BFDB
:100D6000FFF762FE801B642873D828688003F7D5DC
:100D70000CE0FFF759FE064605E000BFFFF754FE02
:100D8000801B6428F0D828688003F7D42078DFF827
:100D9000C08280074FF0000A3ED5AC48001D0168B4
:100DA00011F00C0F08D00068C0F3810002280BD1AD
:100DB000D9F80000400207D42868800716D5E068FB
:100DC000012800D112E03CE1E068B8B10120C8F888
:100DD0000000FFF729FE064605E000BFFFF724FEEE
:100DE000801B0228C0D828688007F7D528682169A9
:100DF00020F0F80040EAC10028600DE0C8F800A02B
:100E0000FFF712FE064604E0FFF70EFE801B0228E5
:100E10001FD828688007F7D42078000722D58B4E8A
:100E20008C486169703671B101210160FFF7FCFDEA
:100E3000074604E0FFF7F8FDC01B022809D8306818
:100E40008007F7D50EE0C0F800A0FFF7EDFD0746DC
:100E500005E082E0FFF7E8FDC01B02287DD830687E
:100E60008007F7D42078400768D5DFF8E0B1002785
:100E70000BF13C0BDBF80000C0000BD4DBF80010DA
:100E800041F08051CBF80010DBF80000012700F0A2
:100E900080500090704E3068C00510D4306840F427
:100EA00080703060FFF7C0FD009005E0FFF7BCFDEB
:100EB0000099401A022850D83068C005F6D5634E14
:100EC000A0686C3601280FD00528306810D020F0BB
:100ED00001003060306820F004003060A068B8B1D4
:100EE000FFF7A2FD00900FE0306840F00100F4E74A
:100EF00040F004003060F7E7FFF796FD0099411AD3
:100F000041F28830814268D830688007F4D50EE01D
:100F1000FFF78AFD009007E0FFF786FD0099411A70
:100F200041F28830814258D830688007F4D42FB11C
:100F3000DBF8001021F08051CBF80010A069D8B385
:100F40004249091D0968C1F3810102294CD00228D8
:100F5000504607D0C8F8600000E03EE0FFF764FDAF
:100F600004463DE04746C8F86000FFF75DFD0646D1
:100F700005E000BFFFF758FD801B02282DD8286828
:100F80008001F7D4F4E907010843E168334A4908CE
:100F900002EB0141A26841EA82110843217C40EA48
:100FA0000160217D40EA0171C9F800100120386616
:100FB000FFF73AFD044606E045E000BFFFF734FDC9
:100FC000001B022809D828688001F7D53BE000BF44
:100FD000FFF72AFD001B022802D90320BDE8F88F85
:100FE00028688001F4D42EE00128F7D0D9F8000059
:100FF000E26900F48001914223D1226A00F03F01AE
:1010000091421ED147F6C071626A0140B1EB821F66
:1010100017D1A26A4FF0FF3300F4403103EB5202C4
:10102000B1EB024F0DD194F82C2000F07061B1EBC0
:10103000026F06D194F8301000F0E040B0EB017F71
:1010400001D00120CAE70020C8E7000004380240B0
:1010500000004742800E4742007000400000FFFF42
:1010600070B5040009D0606A002540B12561656152
:10107000A56294F8510040B10CE0012070BD606899
:10108000B0F5827FF4D0E561F2E784F85050204655
:1010900000F044F8022084F851002068016821F033
:1010A00040010160A088218900F4827001F40441AC
:1010B0000843A18901F400610843217C01F0020189
:1010C0000843217D01F001010843218B01F40071E7
:1010D0000843217F01F03801084394F8201001F003
:1010E00080010843218D01F4005108432168086004
:1010F000A069042101EA104094F8241001F01001C5
:101100000843216848602068C16921F40061C16119
:101110006565012084F85100002070BD10B586B0CF
:10112000044614216846FFF734F9134920688842C1
:1011300020D112480021026842F480520260006807
:1011400000F4805005900D481438026842F0020205
:101150000260006800F00200059038200090022034
:10116000CDE901010320039005200490694604485D
:10117000FFF77AFB06B010BD003001404438024052
:10118000000402402DE9F84F984616468A46044668
:10119000FFF74AFC814694F8510001281ED1BAF1AC
:1011A000000F73D0002E71D094F85000012815D094
:1011B000012784F85070032084F8510000256565EC
:1011C000C4F830A0A686E686A563A587E587656492
:1011D0002564A068B0F5004F03D00CE00220BDE804
:1011E000F88F2068016821F04001016020680168E3
:1011F00041F48041016020680168490603D4016818
:1012000041F040010160E068B0F5006F606803D014
:1012100048B3012E27D047E008B1012E1FD1206B23
:1012200021680088C86006E020688168890709D5C0
:10123000216B0988C160206B801C2063E08E401EFA
:10124000E0860CE0FFF7F0FBA0EB0901414503D37A
:10125000B8F1FF3F03D035E0B8F1000F32D0E08E97
:101260000028E1D123E0206B21680078087306E0B4
:101270002068816889070AD5216B09780173206B82
:10128000401C2063E08E401EE0860DE02BE0FFF75F
:10129000CBFBA0EB0901414503D3B8F1FF3F03D0DD
:1012A00010E0B8F1000F0DD0E08E0028E0D14A46E2
:1012B0004146204600F044FA08B120206065A0684D
:1012C00030B109E084F8517084F85050032086E76B
:1012D0002068C1688068009084F8517004F8505FFD
:1012E00060680028F3D0012079E710B5401EB0F106
:1012F000807F01D3012010BD4FF0E02460610F21F9
:10130000601700F087FB0020A0610720206100200B
:1013100010BDFEE72DE9F04387B014216846FFF7C2
:1013200038F831480024016841F08001016001680B
:1013300001F080010591016841F00401016001683C
:1013400001F004010591016841F0010101600168AB
:1013500001F001010591016841F008010160016897
:1013600001F008010591016841F002010160006887
:10137000012200F002001D4F16020590314638464A
:10138000FFF74CFB002271003846FFF747FBDFF800
:101390006080002231464046FFF740FBDFF8549062
:1013A000012204214846FFF739FB4FF440700090BA
:1013B0000125CDE90154694638460394FFF754FAF4
:1013C0000096CDE90154694640460394FFF74CFA74
:1013D00004200090CDE90154694648460394FFF784
:1013E00043FA07B0BDE8F0833038024000080240FD
:1013F00000000240000C0240104810B50E49016088
:101400004FF48271416000218160C1604FF400722D
:101410000161C0E905121822C0E907214162816219
:101420000A21C162FFF71CFE002803D0BDE810406E
:10143000FFF746B810BD0000003001404400002016
:10144000FEE7FEE770B5002404F1B000C0B2002151
:1014500000F042F90021022000F03EF900211020A6
:1014600000F03AF900250121002000F035F96D1C4B
:10147000EDB2802DF7D3641CE4B2082CE4D370BD28
:1014800070B5444D4FF48074002221462846FFF782
:10149000C5FAC820FFF72CF9012221462846FFF79C
:1014A000BDFA0021AE2000F017F90021022000F063
:1014B00013F90021102000F00FF90021402000F066
:1014C0000BF90021812000F007F90021CF2000F066
:1014D00003F90021A12000F0FFF80021C82000F04E
:1014E000FBF80021A62000F0F7F80021A82000F06A
:1014F000F3F800213F2000F0EFF80021D32000F0A6
:10150000EBF80021084600F0E7F80021D52000F0B4
:10151000E3F80021802000F0DFF80021D92000F05E
:10152000DBF80021F12000F0D7F80021DA2000F0EC
:10153000D3F80021122000F0CFF80021DB2000F0CA
:10154000CBF80021402000F0C7F80021202000F057
:10155000C3F80021022000F0BFF800218D2000F028
:10156000BBF80021142000F0B7F80021A42000F0FF
:10157000B3F80021A62000F0AFF80021AF2000F062
:10158000ABF80021AF2000F0A7F8BDE87040FFF7EE
:1015900059BF00000000024010B50446B031C8B287
:1015A000002100F099F8641CC4F3031040F010000F
:1015B000002100F091F804F00F00BDE81040002178
:1015C00000F08AB82DE9F04115460E460746FFF7B0
:1015D000E3FF0E48002400EB45150121285D00F0D3
:1015E0007BF8641CE4B2102CF7D3761CF1B23846B9
:1015F000FFF7D2FF002428190121007C00F06CF8CD
:10160000641CE4B2102CF6D3BDE8F081C2200008BF
:101610002DE9F041203A00240D468046D7B27F28BC
:1016200003D900208D1C8046EDB22946FFF7B4FF98
:101630000F4E00BF04EB07100121305C00F04CF8A6
:10164000641CE4B2082CF5D36D1CE9B24046FFF7E8
:10165000A3FF002404EB071030440121007A00F0BE
:101660003BF8641CE4B2082CF4D3BDE8F081000020
:10167000D21A00082DE9F0478046002608981D463A
:1016800091468A463446470821E0281B401EC1B2D5
:101690000A2000F011FAB9FBF0F00A21B0FBF1F2D8
:1016A00001FB120026B9691E8C4201DA30B1012615
:1016B0003030C2B207FB0480C0B203E007FB0480F5
:1016C000C0B220225146FFF7A3FF641CE4B2AC4233
:1016D000DBD3BDE8F087000073B5124C4FF4007502
:1016E00009B1012200E0002229462046FFF796F9C1
:1016F0004FF48076002231462046FFF78FF94FF4F1
:101700007A73012269460848FFF73CFD0122314601
:101710002046FFF783F9012229462046FFF77EF98C
:101720007CBD00000008024044000020704710B556
:10173000002302E0C45CCC545B1C9342FAD310BD7E
:10174000F8B515460E460B460092044601220221CA
:1017500000F02CF8A0B9134813490068B0FBF1F071
:101760004FF47A71484300906068B0F5827F0DD1E4
:101770003346002280212046009500F017F870B112
:10178000606D40F0200060650320F8BD009830B126
:10179000401E009020688068C0430006F6D50020F7
:1017A000F8BD00002C00002000366E012DE9F84342
:1017B0001E46914688460446089DFFF735F9401BB2
:1017C000351AFFF731F9074626480068C0F3CB30D9
:1017D00068430AE0701C09D0FFF726F9C01BA84235
:1017E0000FD275B10098B8B3401E00902068816890
:1017F00038EA010033D000214945EBD10020BDE893
:10180000F8832068416821F0E00141606068B0F52C
:10181000827F0BD1A068B0F5004F02D0B0F5806F89
:1018200004D12068016821F040010160A06AB0F590
:10183000005F09D12068016821F40051016020682F
:10184000016841F400510160012084F8510000203A
:1018500084F850000320D2E7FFE70025C6E7012106
:10186000CAE700002C0000201C49884201D2002059
:1018700070471B49884201D20120704719498842AC
:1018800001D2022070471849884201D203207047D4
:101890001649884201D2042070471549884201D276
:1018A000052070471349884201D20620704712492B
:1018B000884201D2072070471049884201D208208F
:1018C00070470F49884201D2092070470D4988426C
:1018D00001D20A2070470B2070470000004000082A
:1018E0000080000800C00008000001080000020895
:1018F00000000408000006080000080800000A08AC
:1019000000000C0800000E087047FFF793B80000B5
:1019100030B593B034216846FEF73BFD14210DA885
:10192000FEF737FD1C480025016841F08051016039
:10193000006800F0805012901848016841F440415E
:1019400001600068022400F44040129001200390DE
:1019500010200490009406940820CDE907506420DC
:10196000CDE909040B9468460C94FFF7B9F908B166
:1019700072B6FEE70DA90F2081E831004FF48050C8
:10198000CDE9100503210DA8FFF7E0F8002801D0EC
:1019900072B6FEE713B030BD403802400070004020
:1019A0000248016841F470010160704788ED00E071
:1019B000FEE700002DE9F04186180D460446B0F11F
:1019C000006F10D3124886420DD262B1FEF736FF87
:1019D0004CF25030FEF764FE070012D0FEF7E6FE30
:1019E0003846BDE8F0810120FBE700232A78214634
:1019F0001846FEF7E5FE10B1FEF7D8FEF3E7641CCB
:101A00006D1CB442F1D3FEF7D1FE0020E9E70000DF
:101A1000000008080907090E002804DB00F1E02097
:101A200080F80014704700F00F0000F1E02080F80B
:101A3000141D70471FB5FFF705F8FFF769FFFFF7A3
:101A400069FCFFF7D9FCFFF71BFDFFF7FBFC15A2B4
:101A500001AB07CA83E80700154C4FF4C0212046AC
:101A6000FEF7FEFC0A2201A92046FFF7A3FF0A2287
:101A700010492046FFF75BFE102440F2D1450022BA
:101A800011461046FFF79EFD012200211020FFF7AE
:101A900099FD04232A46022100200094FFF7EAFD65
:101AA000EDE7000048656C6C6F204D515454000008
:101AB00000000208300000200246012000E05043F0
:101AC000491EC9B2FBD270474FF04070E1EE100AD8
:101AD000704700000000000000000000000000004F
:101AE0000000000000F8000000000000003330009B
:101AF000000000100C06100C0600000000000000A2
:101B0000000040C07840C0784000043F04043F0417
:101B10000400007088FC08300000001820FF211E1F
:101B20000000F008F000E018000000211C031E2156
:101B30001E0000F00888700000001E2123241927D1
:101B4000211010160E000000000000000000000030
:101B50000000000000E01804020000000007182048
:101B6000400000020418E0000000004020180700B8
:101B70000000404080F0804040000202010F01025E
:101B80000200000000F0000000000101011F01013F
:101B90000100000000000000000080B070000000A4
:101BA0000000000000000000000000010101010130
:101BB00001010000000000000000003030000000C3
:101BC000000000000000806018040060180601009A
:101BD000000000E010080810E000000F10202010A6
:101BE0000F00001010F8000000000020203F20200F
:101BF00000000070080808887000003028242221A6
:101C0000300000300888884830000018202020115B
:101C10000E000000C02010F8000000070424243F3C
:101C2000240000F8088888080800001921202011E5
:101C30000E0000E0108888180000000F112020110D
:101C40000E0000380808C83808000000003F0000F7
:101C500000000070880808887000001C22212122E2
:101C60001C0000E010080810E000000031222211E2
:101C70000F00000000C0C000000000000030300075
:101C800000000000008000000000000080600000F4
:101C9000000000008040201008000001020408102D
:101CA000200040404040404040000404040404043C
:101CB00004000008102040800000002010080402EA
:101CC0000100007048080808F000000000303601EC
:101CD0000000C030C828E810E000071827242314AB
:101CE0000B000000C038E0000000203C2302022767
:101CF000382008F8888888700000203F20202011B4
:101D00000E00C030080808083800071820202010EE
:101D1000080008F808080810E000203F20202010E4
:101D20000F0008F88888E8081000203F20202320B2
:101D3000180008F88888E8081000203F20000300F9
:101D40000000C03008080838000007182020221EB4
:101D5000020008F808000008F808203F21010121CE
:101D60003F20000808F8080800000020203F20203D
:101D7000000000000808F8080800C08080807F008C
:101D8000000008F888C028180800203F20012638E5
:101D9000200008F8080000000000203F202020203C
:101DA000300008F8F800F8F80800203F003F003F36
:101DB000200008F830C00008F808203F200007186D
:101DC0003F00E01008080810E0000F10202020104D
:101DD0000F0008F808080808F000203F2101010161
:101DE0000000E01008080810E0000F182424385004
:101DF0004F0008F8888888887000203F2000030C76
:101E0000302000708808080838000038202121227E
:101E10001C00180808F8080818000000203F2000DF
:101E2000000008F808000008F808001F2020202003
:101E30001F000878880000C83808000007380E0125
:101E40000000F80800F80008F800033C0700073C11
:101E50000300081868808068180820302C03032CC1
:101E600030200838C800C83808000000203F200093
:101E7000000010080808C838080020382621202053
:101E80001800000000FE020202000000007F404037
:101E90004000000C30C000000000000000010638C7
:101EA000C00000020202FE000000004040407F002F
:101EB0000000000004020202040000000000000014
:101EC0000000000000000000000080808080808012
:101ED00080800002020400000000000000000000FA
:101EE000000000008080808000000019242222224F
:101EF0003F2008F8008080000000003F11202011E2
:101F00000E000000008080800000000E11202020C4
:101F10001100000000808088F800000E11202010C1
:101F20003F200000808080800000001F22222222AB
:101F30001300008080F0888888180020203F20202F
:101F400000000000808080808000006B9494949357
:101F5000600008F8008080800000203F2100002001
:101F60003F2000809898000000000020203F2020A3
:101F70000000000000809898000000C08080807FF2
:101F8000000008F8000080808000203F24022D30EF
:101F90002000000808F8000000000020203F20205A
:101FA00000008080808080808000203F20003F20D3
:101FB000003F8080008080800000203F21000020C2
:101FC0003F200000808080800000001F2020202013
:101FD0001F00808000808000000080FFA120201171
:101FE0000E000000008080808000000E112020A0E4
:101FF000FF80808080008080800020203F212000A2
:10200000010000008080808080000033242424248C
:102010001900008080E0808000000000001F202068
:1020200000008080000000808000001F2020201021
:102030003F20808080000080808000010E300806F4
:10204000010080800080008080800F300C030C3005
:102050000F0000808000808080000020312E0E3133
:102060002000808080000080808080818E70180633
:10207000010000808080808080000021302C22219F
:10208000300000000000807C020200000000003FE1
:10209000404000000000FF00000000000000FF00C2
:1020A00000000002027C800000000040403F000071
:1020B000000000060101020204040000000000000C
:1020C00000002424A4FEA3220022CC0000FF000074
:1020D0000000080601FF00010404040404FF0202DA
:1020E0000200101010FF109008888888FF888888E8
:1020F00008000444827F01808040432C10284681E0
:102100008000000000000000000001020304060738
:102110000809000034210008000000203000000001
:10212000000200086421000830000020D0060000F2
:102130001C02000800000000000000000000000079
:10214000000000000100000000000000000000008E
:10215000000000000100000010000000000000006E
:042160000024F40063
:04000005080001C529
:00000001FF
